:100000000C942A000C943C000C943C000C943C0092
:100010000C943C000C943C000C943C000C943C0070
:100020000C943C000C943C000C943C000C943C0060
:100030000C943C000C943C000C943C000C943C0050
:100040000C943C000C943C000C943C000C943C0040
:100050000C943C0011241FBECFE5D8E0DEBFCDBF1D
:1000600020E0A0E6B0E001C01D92A136B207E1F7A2
:100070000E943E000C946F000C9400008FEF8ABB2E
:1000800017BA809160008BBB90E1B39B13C0809145
:1000900060008F5F803119F08093600002C0109281
:1000A0006000809160008BBBE7EAF1E63197F1F7E1
:1000B00000C00000B49BE9CF80916000811102C0B4
:1000C00090936000809160008150809360008BBBB2
:1000D000E7EAF1E63197F1F700C00000D6CFF894D7
:0200E000FFCF50
:00000001FF
