:100000000C942A000C943C000C943C000C943C0092
:100010000C943C000C943C000C943C000C943C0070
:100020000C943C000C943C000C943C000C943C0060
:100030000C943C000C943C000C943C000C943C0050
:100040000C943C000C943C000C943C000C943C0040
:100050000C943C0011241FBECFE5D8E0DEBFCDBF1D
:1000600020E0A0E6B0E001C01D92A136B207E1F7A2
:100070000E943E000C946D000C9400008FEF8ABB30
:1000800017BA809160008BBB90E1B39B12C0809146
:1000900060008F5F803119F08093600002C0109281
:1000A0006000809160008BBBE7E2F9E03197F1F7E7
:1000B00000C0B49BEACF80916000811102C0909390
:1000C0006000809160008150809360008BBBE7E20C
:0E00D000F9E03197F1F700C0D8CFF894FFCFD8
:00000001FF
