:100000000C942A000C943E000C943C000C94670065
:100010000C943C000C943C000C943C000C943C0070
:100020000C943C000C943C000C943C000C943C0060
:100030000C943C000C943C000C943C000C943C0050
:100040000C943C000C943C000C943C000C943C0040
:100050000C943C0011241FBECFE5D8E0DEBFCDBF1D
:1000600020E0A0E6B0E001C01D92A136B207E1F7A2
:100070000E9491000C949C000C9400001F920F921F
:100080000FB60F9211242F938F939F93809160004E
:100090008F5F8093600080916000803111F4109236
:1000A0006000809160008BBB2FE986E891E02150D1
:1000B00080409040E1F700C000008FEF8ABF9F9121
:1000C0008F912F910F900FBE0F901F9018951F9238
:1000D0000F920FB60F9211242F938F939F938091BD
:1000E0006000811103C080E1809360008091600016
:1000F000815080936000809160008BBB2FE986E87F
:1001000091E0215080409040E1F700C000008FEF67
:100110008ABF9F918F912F910F900FBE0F901F90CC
:1001200018958FE08ABB1BBA8BB780668BBF85B7EB
:0C013000826085BF7894FFCFF894FFCF69
:00000001FF
