S01600004D43204558504552494D454E54322E737265632B
S11300000C942A000C943F000C943F000C943F0085
S11300100C943F000C943F000C943F000C943F0060
S11300200C943F000C943F000C943F000C943F0050
S11300300C943F000C943F000C943F000C943F0040
S11300400C943F000C943F000C943F000C943F0030
S11300500C943F0011241FBECFE5D8E0DEBFCDBF16
S113006010E0A0E6B0E0E0E6F1E002C005900D92F9
S1130070A03EB107D9F70E94A6000C94AE000C94E0
S11300800000DF92EF92FF920F931F93CF93DF93C1
S113009068E070E0A1E0B0E04BC081919191892BC0
S11300A029F1DBBAA90147705078552334F4415043
S11300B05109486F5F6F4F5F5F4FCA0199230CF47A
S11300C0089687709078992324F40197886F9F6F1E
S11300D00196AD0102C0440F551F8A95E2F7CA018B
S11300E0809582BB56EA5A95F1F700C02F5F3F4FC7
S11300F02617370791F62196005F1F4FC830D105A8
S113010059F0DA2E0C2E01C0DD0C0A94EAF79B019B
S113011028503109F801C1CF41E0E41AF10829F06F
S113012000E610E0C0E0D0E0ECCF6150710931F09E
S11301300F2EF2E3EF2EF12CF02DF2CFDF91CF91C1
S11301401F910F91FF90EF90DF9008958FEF8ABB7E
S113015081BB1BBA82BB0E944100FDCFF894FFCF44
S11301600000010001000100010001000100000085
S1130170000000000000000000000000010000007A
S1130180000000000000000000000000010000006A
S11301900000010001000100010001000100000055
S11301A00000010001000100010001000100000045
S11301B0000000000000000000000000010000003A
S11301C0000000000000000000000000010000002A
S11301D00000010001000100010001000100000015
S9030000FC
